{"abi":[{"type":"function","name":"increment","inputs":[],"outputs":[],"stateMutability":"nonpayable"},{"type":"function","name":"number","inputs":[],"outputs":[{"name":"","type":"uint256","internalType":"uint256"}],"stateMutability":"view"}],"bytecode":{"object":"0x6080604052348015600e575f5ffd5b5061012f8061001c5f395ff3fe6080604052348015600e575f5ffd5b50600436106030575f3560e01c80638381f58a146034578063d09de08a14604e575b5f5ffd5b603a6056565b604051604591906089565b60405180910390f35b6054605b565b005b5f5481565b60015f5f828254606a919060cd565b92505081905550565b5f819050919050565b6083816073565b82525050565b5f602082019050609a5f830184607c565b92915050565b7f4e487b71000000000000000000000000000000000000000000000000000000005f52601160045260245ffd5b5f60d5826073565b915060de836073565b925082820190508082111560f35760f260a0565b5b9291505056fea2646970667358221220e9819b773397240f62c2445fd380725bb7cd0b0c868e033882de29dbcb50a0ae64736f6c634300081e0033","linkReferences":{}},"methodIdentifiers":{"increment()":"d09de08a","number()":"8381f58a"},"id":16}