{"abi":[{"type":"function","name":"data","inputs":[],"outputs":[{"name":"","type":"uint256","internalType":"uint256"}],"stateMutability":"view"},{"type":"function","name":"set","inputs":[{"name":"_data","type":"uint256","internalType":"uint256"}],"outputs":[],"stateMutability":"nonpayable"}],"bytecode":{"object":"0x6080604052348015600e575f5ffd5b506101268061001c5f395ff3fe6080604052348015600e575f5ffd5b50600436106030575f3560e01c806360fe47b114603457806373d4a13a14604c575b5f5ffd5b604a60048036038101906046919060a6565b6066565b005b6052606f565b604051605d919060d9565b60405180910390f35b805f8190555050565b5f5481565b5f5ffd5b5f819050919050565b6088816078565b81146091575f5ffd5b50565b5f8135905060a0816081565b92915050565b5f6020828403121560b85760b76074565b5b5f60c3848285016094565b91505092915050565b60d3816078565b82525050565b5f60208201905060ea5f83018460cc565b9291505056fea2646970667358221220be78ee38ab18d1492c9f950d1339a239c05caa49b7cd1b3bf8288aa6c171dc1a64736f6c634300081e0033","linkReferences":{}},"methodIdentifiers":{"data()":"73d4a13a","set(uint256)":"60fe47b1"},"id":1}